{
  "contractName": "Paypal",
  "abi": [
    {
      "constant": false,
      "inputs": [
        {
          "name": "account",
          "type": "address"
        }
      ],
      "name": "addArbitrator",
      "outputs": [],
      "payable": false,
      "stateMutability": "nonpayable",
      "type": "function"
    },
    {
      "constant": false,
      "inputs": [
        {
          "name": "recipient",
          "type": "address"
        }
      ],
      "name": "transferPrimary",
      "outputs": [],
      "payable": false,
      "stateMutability": "nonpayable",
      "type": "function"
    },
    {
      "constant": false,
      "inputs": [],
      "name": "renounceArbitrator",
      "outputs": [],
      "payable": false,
      "stateMutability": "nonpayable",
      "type": "function"
    },
    {
      "constant": true,
      "inputs": [
        {
          "name": "account",
          "type": "address"
        }
      ],
      "name": "isArbitrator",
      "outputs": [
        {
          "name": "",
          "type": "bool"
        }
      ],
      "payable": false,
      "stateMutability": "view",
      "type": "function"
    },
    {
      "constant": true,
      "inputs": [],
      "name": "primary",
      "outputs": [
        {
          "name": "",
          "type": "address"
        }
      ],
      "payable": false,
      "stateMutability": "view",
      "type": "function"
    },
    {
      "payable": true,
      "stateMutability": "payable",
      "type": "fallback"
    },
    {
      "anonymous": false,
      "inputs": [
        {
          "indexed": false,
          "name": "orderid",
          "type": "uint256"
        },
        {
          "indexed": false,
          "name": "payer",
          "type": "address"
        },
        {
          "indexed": false,
          "name": "recipient",
          "type": "address"
        },
        {
          "indexed": false,
          "name": "amount",
          "type": "uint256"
        }
      ],
      "name": "Deposited",
      "type": "event"
    },
    {
      "anonymous": false,
      "inputs": [
        {
          "indexed": false,
          "name": "orderid",
          "type": "uint256"
        },
        {
          "indexed": false,
          "name": "recipient",
          "type": "address"
        },
        {
          "indexed": false,
          "name": "amount",
          "type": "uint256"
        }
      ],
      "name": "Withdraw",
      "type": "event"
    },
    {
      "anonymous": false,
      "inputs": [
        {
          "indexed": false,
          "name": "orderid",
          "type": "uint256"
        },
        {
          "indexed": false,
          "name": "payer",
          "type": "address"
        },
        {
          "indexed": false,
          "name": "amount",
          "type": "uint256"
        }
      ],
      "name": "Refund",
      "type": "event"
    },
    {
      "anonymous": false,
      "inputs": [
        {
          "indexed": false,
          "name": "orderid",
          "type": "uint256"
        }
      ],
      "name": "ReleaseFund",
      "type": "event"
    },
    {
      "anonymous": false,
      "inputs": [
        {
          "indexed": false,
          "name": "orderid",
          "type": "uint256"
        }
      ],
      "name": "PendingFund",
      "type": "event"
    },
    {
      "anonymous": false,
      "inputs": [
        {
          "indexed": false,
          "name": "orderid",
          "type": "uint256"
        }
      ],
      "name": "ActiveFund",
      "type": "event"
    },
    {
      "anonymous": false,
      "inputs": [
        {
          "indexed": false,
          "name": "orderid",
          "type": "uint256"
        }
      ],
      "name": "EnableRefund",
      "type": "event"
    },
    {
      "anonymous": false,
      "inputs": [
        {
          "indexed": false,
          "name": "sender",
          "type": "address"
        },
        {
          "indexed": false,
          "name": "payment",
          "type": "uint256"
        }
      ],
      "name": "ArbitratorWithdraw",
      "type": "event"
    },
    {
      "anonymous": false,
      "inputs": [
        {
          "indexed": true,
          "name": "account",
          "type": "address"
        }
      ],
      "name": "ArbitratorAdded",
      "type": "event"
    },
    {
      "anonymous": false,
      "inputs": [
        {
          "indexed": true,
          "name": "account",
          "type": "address"
        }
      ],
      "name": "ArbitratorRemoved",
      "type": "event"
    },
    {
      "anonymous": false,
      "inputs": [
        {
          "indexed": false,
          "name": "recipient",
          "type": "address"
        }
      ],
      "name": "PrimaryTransferred",
      "type": "event"
    },
    {
      "constant": true,
      "inputs": [
        {
          "name": "orderid",
          "type": "uint256"
        }
      ],
      "name": "depositsOf",
      "outputs": [
        {
          "name": "",
          "type": "uint256"
        }
      ],
      "payable": false,
      "stateMutability": "view",
      "type": "function"
    },
    {
      "constant": true,
      "inputs": [
        {
          "name": "orderid",
          "type": "uint256"
        }
      ],
      "name": "payee",
      "outputs": [
        {
          "name": "",
          "type": "address"
        }
      ],
      "payable": false,
      "stateMutability": "view",
      "type": "function"
    },
    {
      "constant": true,
      "inputs": [
        {
          "name": "orderid",
          "type": "uint256"
        }
      ],
      "name": "payer",
      "outputs": [
        {
          "name": "",
          "type": "address"
        }
      ],
      "payable": false,
      "stateMutability": "view",
      "type": "function"
    },
    {
      "constant": true,
      "inputs": [
        {
          "name": "orderid",
          "type": "uint256"
        }
      ],
      "name": "expire",
      "outputs": [
        {
          "name": "",
          "type": "uint256"
        }
      ],
      "payable": false,
      "stateMutability": "view",
      "type": "function"
    },
    {
      "constant": true,
      "inputs": [
        {
          "name": "orderid",
          "type": "uint256"
        }
      ],
      "name": "state",
      "outputs": [
        {
          "name": "",
          "type": "uint8"
        }
      ],
      "payable": false,
      "stateMutability": "view",
      "type": "function"
    },
    {
      "constant": false,
      "inputs": [
        {
          "name": "orderid",
          "type": "uint256"
        },
        {
          "name": "expiry",
          "type": "uint256"
        }
      ],
      "name": "setExpiryDate",
      "outputs": [],
      "payable": false,
      "stateMutability": "nonpayable",
      "type": "function"
    },
    {
      "constant": false,
      "inputs": [],
      "name": "arbitratorWithdraw",
      "outputs": [],
      "payable": true,
      "stateMutability": "payable",
      "type": "function"
    },
    {
      "constant": false,
      "inputs": [
        {
          "name": "token",
          "type": "address"
        },
        {
          "name": "recipient",
          "type": "address"
        },
        {
          "name": "amount",
          "type": "uint256"
        },
        {
          "name": "orderid",
          "type": "uint256"
        }
      ],
      "name": "deposit",
      "outputs": [
        {
          "name": "",
          "type": "bool"
        }
      ],
      "payable": false,
      "stateMutability": "nonpayable",
      "type": "function"
    },
    {
      "constant": false,
      "inputs": [
        {
          "name": "orderid",
          "type": "uint256"
        }
      ],
      "name": "releaseFund",
      "outputs": [],
      "payable": false,
      "stateMutability": "nonpayable",
      "type": "function"
    },
    {
      "constant": false,
      "inputs": [
        {
          "name": "orderid",
          "type": "uint256"
        }
      ],
      "name": "pendingFund",
      "outputs": [],
      "payable": false,
      "stateMutability": "nonpayable",
      "type": "function"
    },
    {
      "constant": false,
      "inputs": [
        {
          "name": "orderid",
          "type": "uint256"
        }
      ],
      "name": "activeFund",
      "outputs": [],
      "payable": false,
      "stateMutability": "nonpayable",
      "type": "function"
    },
    {
      "constant": false,
      "inputs": [
        {
          "name": "orderid",
          "type": "uint256"
        }
      ],
      "name": "enableRefund",
      "outputs": [],
      "payable": false,
      "stateMutability": "nonpayable",
      "type": "function"
    },
    {
      "constant": false,
      "inputs": [
        {
          "name": "orderid",
          "type": "uint256"
        }
      ],
      "name": "refund",
      "outputs": [],
      "payable": false,
      "stateMutability": "nonpayable",
      "type": "function"
    },
    {
      "constant": false,
      "inputs": [
        {
          "name": "orderid",
          "type": "uint256"
        }
      ],
      "name": "withdraw",
      "outputs": [],
      "payable": false,
      "stateMutability": "nonpayable",
      "type": "function"
    }
  ],
  "bytecode": "0x6080604052336000806101000a81548173ffffffffffffffffffffffffffffffffffffffff021916908373ffffffffffffffffffffffffffffffffffffffff1602179055507f4101e71e974f68df5e9730cc223280b41654676bbb052cdcc735c3337e64d2d96000809054906101000a900473ffffffffffffffffffffffffffffffffffffffff16604051808273ffffffffffffffffffffffffffffffffffffffff1673ffffffffffffffffffffffffffffffffffffffff16815260200191505060405180910390a1620000d933620000df60201b60201c565b62000304565b620000fa8160016200014060201b62001c2d1790919060201c565b8073ffffffffffffffffffffffffffffffffffffffff167ffc4dfef69004b5e3aba1eb4a8b1e53b893418fda232d9f60574a6c62f30c449d60405160405180910390a250565b6200015282826200022460201b60201c565b15620001c6576040517f08c379a000000000000000000000000000000000000000000000000000000000815260040180806020018281038252601f8152602001807f526f6c65733a206163636f756e7420616c72656164792068617320726f6c650081525060200191505060405180910390fd5b60018260000160008373ffffffffffffffffffffffffffffffffffffffff1673ffffffffffffffffffffffffffffffffffffffff16815260200190815260200160002060006101000a81548160ff0219169083151502179055505050565b60008073ffffffffffffffffffffffffffffffffffffffff168273ffffffffffffffffffffffffffffffffffffffff161415620002ad576040517f08c379a0000000000000000000000000000000000000000000000000000000008152600401808060200182810382526022815260200180620025056022913960400191505060405180910390fd5b8260000160008373ffffffffffffffffffffffffffffffffffffffff1673ffffffffffffffffffffffffffffffffffffffff16815260200190815260200160002060009054906101000a900460ff16905092915050565b6121f180620003146000396000f3fe6080604052600436106101145760003560e01c80637cf850f2116100a0578063bf81bf4311610064578063bf81bf4314610623578063c6dbdf6114610672578063d91f2a0b146106c9578063e552a5291461070e578063f01e2fc31461074957610114565b80637cf850f21461047a57806389eee292146104c95780638b83209b1461050457806397d224771461057f5780639f6bd2a9146105ba57610114565b8063278ecde1116100e7578063278ecde1146103155780632e1a7d4d146103505780633e4f49e61461038b578063561874ee146103e8578063715f92a81461046357610114565b806301fabd751461019b5780631af75968146101ec57806320e8c565146102275780632348238c146102c4575b34600260003373ffffffffffffffffffffffffffffffffffffffff1673ffffffffffffffffffffffffffffffffffffffff1681526020019081526020016000205401600260003373ffffffffffffffffffffffffffffffffffffffff1673ffffffffffffffffffffffffffffffffffffffff16815260200190815260200160002081905550005b3480156101a757600080fd5b506101ea600480360360208110156101be57600080fd5b81019080803573ffffffffffffffffffffffffffffffffffffffff169060200190929190505050610753565b005b3480156101f857600080fd5b506102256004803603602081101561020f57600080fd5b81019080803590602001909291905050506107bd565b005b34801561023357600080fd5b506102aa6004803603608081101561024a57600080fd5b81019080803573ffffffffffffffffffffffffffffffffffffffff169060200190929190803573ffffffffffffffffffffffffffffffffffffffff169060200190929190803590602001909291908035906020019092919050505061089d565b604051808215151515815260200191505060405180910390f35b3480156102d057600080fd5b50610313600480360360208110156102e757600080fd5b81019080803573ffffffffffffffffffffffffffffffffffffffff169060200190929190505050610c1a565b005b34801561032157600080fd5b5061034e6004803603602081101561033857600080fd5b8101908080359060200190929190505050610e0c565b005b34801561035c57600080fd5b506103896004803603602081101561037357600080fd5b8101908080359060200190929190505050611082565b005b34801561039757600080fd5b506103c4600480360360208110156103ae57600080fd5b81019080803590602001909291905050506113aa565b604051808260038111156103d457fe5b60ff16815260200191505060405180910390f35b3480156103f457600080fd5b506104216004803603602081101561040b57600080fd5b81019080803590602001909291905050506113d7565b604051808273ffffffffffffffffffffffffffffffffffffffff1673ffffffffffffffffffffffffffffffffffffffff16815260200191505060405180910390f35b34801561046f57600080fd5b50610478611417565b005b34801561048657600080fd5b506104b36004803603602081101561049d57600080fd5b8101908080359060200190929190505050611422565b6040518082815260200191505060405180910390f35b3480156104d557600080fd5b50610502600480360360208110156104ec57600080fd5b8101908080359060200190929190505050611442565b005b34801561051057600080fd5b5061053d6004803603602081101561052757600080fd5b8101908080359060200190929190505050611512565b604051808273ffffffffffffffffffffffffffffffffffffffff1673ffffffffffffffffffffffffffffffffffffffff16815260200191505060405180910390f35b34801561058b57600080fd5b506105b8600480360360208110156105a257600080fd5b8101908080359060200190929190505050611552565b005b3480156105c657600080fd5b50610609600480360360208110156105dd57600080fd5b81019080803573ffffffffffffffffffffffffffffffffffffffff169060200190929190505050611631565b604051808215151515815260200191505060405180910390f35b34801561062f57600080fd5b5061065c6004803603602081101561064657600080fd5b810190808035906020019092919050505061164e565b6040518082815260200191505060405180910390f35b34801561067e57600080fd5b5061068761166e565b604051808273ffffffffffffffffffffffffffffffffffffffff1673ffffffffffffffffffffffffffffffffffffffff16815260200191505060405180910390f35b3480156106d557600080fd5b5061070c600480360360408110156106ec57600080fd5b810190808035906020019092919080359060200190929190505050611697565b005b34801561071a57600080fd5b506107476004803603602081101561073157600080fd5b81019080803590602001909291905050506116b6565b005b610751611786565b005b61075c33611631565b6107b1576040517f08c379a00000000000000000000000000000000000000000000000000000000081526004018080602001828103825260388152602001806121076038913960400191505060405180910390fd5b6107ba816118c4565b50565b3373ffffffffffffffffffffffffffffffffffffffff166003600083815260200190815260200160002060010160009054906101000a900473ffffffffffffffffffffffffffffffffffffffff1673ffffffffffffffffffffffffffffffffffffffff161461082b57600080fd5b60026003600083815260200190815260200160002060040160146101000a81548160ff0219169083600381111561085e57fe5b02179055507f3daa0e89130fd14b34d5104efcc05c14eb22e41319443a38eec3ab5444ccb7df816040518082815260200191505060405180910390a150565b600080859050838173ffffffffffffffffffffffffffffffffffffffff1663dd62ed3e33306040518363ffffffff1660e01b8152600401808373ffffffffffffffffffffffffffffffffffffffff1673ffffffffffffffffffffffffffffffffffffffff1681526020018273ffffffffffffffffffffffffffffffffffffffff1673ffffffffffffffffffffffffffffffffffffffff1681526020019250505060206040518083038186803b15801561095557600080fd5b505afa158015610969573d6000803e3d6000fd5b505050506040513d602081101561097f57600080fd5b810190808051906020019092919050505010156109e7576040517f08c379a00000000000000000000000000000000000000000000000000000000081526004018080602001828103825260238152602001806120556023913960400191505060405180910390fd5b836003600085815260200190815260200160002060030181905550846003600085815260200190815260200160002060000160006101000a81548173ffffffffffffffffffffffffffffffffffffffff021916908373ffffffffffffffffffffffffffffffffffffffff160217905550336003600085815260200190815260200160002060010160006101000a81548173ffffffffffffffffffffffffffffffffffffffff021916908373ffffffffffffffffffffffffffffffffffffffff160217905550806003600085815260200190815260200160002060040160006101000a81548173ffffffffffffffffffffffffffffffffffffffff021916908373ffffffffffffffffffffffffffffffffffffffff16021790555060006003600085815260200190815260200160002060040160146101000a81548160ff02191690836003811115610b3457fe5b0217905550610b663330868473ffffffffffffffffffffffffffffffffffffffff1661191e909392919063ffffffff16565b7f984a71c9d95fd4794aeba33ae72edfec22053fde75488d63abef9dc69ee795af83338787604051808581526020018473ffffffffffffffffffffffffffffffffffffffff1673ffffffffffffffffffffffffffffffffffffffff1681526020018373ffffffffffffffffffffffffffffffffffffffff1673ffffffffffffffffffffffffffffffffffffffff16815260200182815260200194505050505060405180910390a16001915050949350505050565b6000809054906101000a900473ffffffffffffffffffffffffffffffffffffffff1673ffffffffffffffffffffffffffffffffffffffff163373ffffffffffffffffffffffffffffffffffffffff1614610cbf576040517f08c379a000000000000000000000000000000000000000000000000000000000815260040180806020018281038252602c81526020018061213f602c913960400191505060405180910390fd5b600073ffffffffffffffffffffffffffffffffffffffff168173ffffffffffffffffffffffffffffffffffffffff161415610d45576040517f08c379a000000000000000000000000000000000000000000000000000000000815260040180806020018281038252602a8152602001806120dd602a913960400191505060405180910390fd5b806000806101000a81548173ffffffffffffffffffffffffffffffffffffffff021916908373ffffffffffffffffffffffffffffffffffffffff1602179055507f4101e71e974f68df5e9730cc223280b41654676bbb052cdcc735c3337e64d2d96000809054906101000a900473ffffffffffffffffffffffffffffffffffffffff16604051808273ffffffffffffffffffffffffffffffffffffffff1673ffffffffffffffffffffffffffffffffffffffff16815260200191505060405180910390a150565b60016003811115610e1957fe5b6003600083815260200190815260200160002060040160149054906101000a900460ff166003811115610e4857fe5b14610e9e576040517f08c379a000000000000000000000000000000000000000000000000000000000815260040180806020018281038252603181526020018061216b6031913960400191505060405180910390fd5b60006003600083815260200190815260200160002060010160009054906101000a900473ffffffffffffffffffffffffffffffffffffffff16905060006003600084815260200190815260200160002060030154905060006003600085815260200190815260200160002060040160009054906101000a900473ffffffffffffffffffffffffffffffffffffffff16905060036000858152602001908152602001600020600080820160006101000a81549073ffffffffffffffffffffffffffffffffffffffff02191690556001820160006101000a81549073ffffffffffffffffffffffffffffffffffffffff0219169055600282016000905560038201600090556004820160006101000a81549073ffffffffffffffffffffffffffffffffffffffff02191690556004820160146101000a81549060ff0219169055505061100983838373ffffffffffffffffffffffffffffffffffffffff16611a249092919063ffffffff16565b7f21e12a7cad0da5928167e1084ea4d5fdf8d9af66657a2543a9ac76a0ca081477848484604051808481526020018373ffffffffffffffffffffffffffffffffffffffff1673ffffffffffffffffffffffffffffffffffffffff168152602001828152602001935050505060405180910390a150505050565b60036000828152602001908152602001600020600201544210156110f1576040517f08c379a00000000000000000000000000000000000000000000000000000000081526004018080602001828103825260318152602001806120246031913960400191505060405180910390fd5b6003808111156110fd57fe5b6003600083815260200190815260200160002060040160149054906101000a900460ff16600381111561112c57fe5b148061117157506000600381111561114057fe5b6003600083815260200190815260200160002060040160149054906101000a900460ff16600381111561116f57fe5b145b6111c6576040517f08c379a00000000000000000000000000000000000000000000000000000000081526004018080602001828103825260228152602001806120786022913960400191505060405180910390fd5b60006003600083815260200190815260200160002060030154905060006003600084815260200190815260200160002060040160009054906101000a900473ffffffffffffffffffffffffffffffffffffffff16905060006003600085815260200190815260200160002060000160009054906101000a900473ffffffffffffffffffffffffffffffffffffffff16905060036000858152602001908152602001600020600080820160006101000a81549073ffffffffffffffffffffffffffffffffffffffff02191690556001820160006101000a81549073ffffffffffffffffffffffffffffffffffffffff0219169055600282016000905560038201600090556004820160006101000a81549073ffffffffffffffffffffffffffffffffffffffff02191690556004820160146101000a81549060ff0219169055505061133181848473ffffffffffffffffffffffffffffffffffffffff16611a249092919063ffffffff16565b7f9da6493a92039daf47d1f2d7a782299c5994c6323eb1e972f69c432089ec52bf848285604051808481526020018373ffffffffffffffffffffffffffffffffffffffff1673ffffffffffffffffffffffffffffffffffffffff168152602001828152602001935050505060405180910390a150505050565b60006003600083815260200190815260200160002060040160149054906101000a900460ff169050919050565b60006003600083815260200190815260200160002060010160009054906101000a900473ffffffffffffffffffffffffffffffffffffffff169050919050565b61142033611af5565b565b600060036000838152602001908152602001600020600301549050919050565b61144b33611631565b6114a0576040517f08c379a00000000000000000000000000000000000000000000000000000000081526004018080602001828103825260388152602001806121076038913960400191505060405180910390fd5b60006003600083815260200190815260200160002060040160146101000a81548160ff021916908360038111156114d357fe5b02179055507f9248a3b3bbe20d864a02e9681c3885ce569e4e73939298e2de2bc48009e0bcb3816040518082815260200191505060405180910390a150565b60006003600083815260200190815260200160002060000160009054906101000a900473ffffffffffffffffffffffffffffffffffffffff169050919050565b3373ffffffffffffffffffffffffffffffffffffffff166003600083815260200190815260200160002060010160009054906101000a900473ffffffffffffffffffffffffffffffffffffffff1673ffffffffffffffffffffffffffffffffffffffff16146115c057600080fd5b600380600083815260200190815260200160002060040160146101000a81548160ff021916908360038111156115f257fe5b02179055507fd602b20ee79a1800f238769e04b0c68b13cf32a239d18928517f49f9de177a64816040518082815260200191505060405180910390a150565b6000611647826001611b4f90919063ffffffff16565b9050919050565b600060036000838152602001908152602001600020600201549050919050565b60008060009054906101000a900473ffffffffffffffffffffffffffffffffffffffff16905090565b8060036000848152602001908152602001600020600201819055505050565b6116bf33611631565b611714576040517f08c379a00000000000000000000000000000000000000000000000000000000081526004018080602001828103825260388152602001806121076038913960400191505060405180910390fd5b60016003600083815260200190815260200160002060040160146101000a81548160ff0219169083600381111561174757fe5b02179055507f4fd602209b28a36f97c78b2caa5f1af6c7fa9858f76864ba8b2eb47ce982048a816040518082815260200191505060405180910390a150565b6000600260003373ffffffffffffffffffffffffffffffffffffffff1673ffffffffffffffffffffffffffffffffffffffff1681526020019081526020016000205490506000600260003373ffffffffffffffffffffffffffffffffffffffff1673ffffffffffffffffffffffffffffffffffffffff168152602001908152602001600020819055503373ffffffffffffffffffffffffffffffffffffffff166108fc829081150290604051600060405180830381858888f19350505050158015611855573d6000803e3d6000fd5b507f04e96a961d6bbba03fab53973da977c7a4979bb38e5b43eedd38719d15799b333382604051808373ffffffffffffffffffffffffffffffffffffffff1673ffffffffffffffffffffffffffffffffffffffff1681526020018281526020019250505060405180910390a150565b6118d8816001611c2d90919063ffffffff16565b8073ffffffffffffffffffffffffffffffffffffffff167ffc4dfef69004b5e3aba1eb4a8b1e53b893418fda232d9f60574a6c62f30c449d60405160405180910390a250565b611a1e848573ffffffffffffffffffffffffffffffffffffffff166323b872dd905060e01b858585604051602401808473ffffffffffffffffffffffffffffffffffffffff1673ffffffffffffffffffffffffffffffffffffffff1681526020018373ffffffffffffffffffffffffffffffffffffffff1673ffffffffffffffffffffffffffffffffffffffff1681526020018281526020019350505050604051602081830303815290604052907bffffffffffffffffffffffffffffffffffffffffffffffffffffffff19166020820180517bffffffffffffffffffffffffffffffffffffffffffffffffffffffff8381831617835250505050611d08565b50505050565b611af0838473ffffffffffffffffffffffffffffffffffffffff1663a9059cbb905060e01b8484604051602401808373ffffffffffffffffffffffffffffffffffffffff1673ffffffffffffffffffffffffffffffffffffffff16815260200182815260200192505050604051602081830303815290604052907bffffffffffffffffffffffffffffffffffffffffffffffffffffffff19166020820180517bffffffffffffffffffffffffffffffffffffffffffffffffffffffff8381831617835250505050611d08565b505050565b611b09816001611f5390919063ffffffff16565b8073ffffffffffffffffffffffffffffffffffffffff167f715484adb5bc9cc29af577725dbf8486d0b82eca3ba79f65846e92ff38ef32b560405160405180910390a250565b60008073ffffffffffffffffffffffffffffffffffffffff168273ffffffffffffffffffffffffffffffffffffffff161415611bd6576040517f08c379a00000000000000000000000000000000000000000000000000000000081526004018080602001828103825260228152602001806120bb6022913960400191505060405180910390fd5b8260000160008373ffffffffffffffffffffffffffffffffffffffff1673ffffffffffffffffffffffffffffffffffffffff16815260200190815260200160002060009054906101000a900460ff16905092915050565b611c378282611b4f565b15611caa576040517f08c379a000000000000000000000000000000000000000000000000000000000815260040180806020018281038252601f8152602001807f526f6c65733a206163636f756e7420616c72656164792068617320726f6c650081525060200191505060405180910390fd5b60018260000160008373ffffffffffffffffffffffffffffffffffffffff1673ffffffffffffffffffffffffffffffffffffffff16815260200190815260200160002060006101000a81548160ff0219169083151502179055505050565b611d278273ffffffffffffffffffffffffffffffffffffffff16612010565b611d99576040517f08c379a000000000000000000000000000000000000000000000000000000000815260040180806020018281038252601f8152602001807f5361666545524332303a2063616c6c20746f206e6f6e2d636f6e74726163740081525060200191505060405180910390fd5b600060608373ffffffffffffffffffffffffffffffffffffffff16836040518082805190602001908083835b60208310611de85780518252602082019150602081019050602083039250611dc5565b6001836020036101000a0380198251168184511680821785525050505050509050019150506000604051808303816000865af19150503d8060008114611e4a576040519150601f19603f3d011682016040523d82523d6000602084013e611e4f565b606091505b509150915081611ec7576040517f08c379a00000000000000000000000000000000000000000000000000000000081526004018080602001828103825260208152602001807f5361666545524332303a206c6f772d6c6576656c2063616c6c206661696c656481525060200191505060405180910390fd5b600081511115611f4d57808060200190516020811015611ee657600080fd5b8101908080519060200190929190505050611f4c576040517f08c379a000000000000000000000000000000000000000000000000000000000815260040180806020018281038252602a81526020018061219c602a913960400191505060405180910390fd5b5b50505050565b611f5d8282611b4f565b611fb2576040517f08c379a000000000000000000000000000000000000000000000000000000000815260040180806020018281038252602181526020018061209a6021913960400191505060405180910390fd5b60008260000160008373ffffffffffffffffffffffffffffffffffffffff1673ffffffffffffffffffffffffffffffffffffffff16815260200190815260200160002060006101000a81548160ff0219169083151502179055505050565b600080823b90506000811191505091905056fe77697468647261773a2073656c6c65722063616e206f6e6c792077697468647261772061667465722074696d65206f7574616c6c6f77616e6365206d757374206c6172676572207468616e206465706f7369742177697468647261773a206e65656420616374697665206f722072656c656173696e67526f6c65733a206163636f756e7420646f6573206e6f74206861766520726f6c65526f6c65733a206163636f756e7420697320746865207a65726f20616464726573735365636f6e646172793a206e6577207072696d61727920697320746865207a65726f206164647265737341726269747261746f72526f6c653a2063616c6c657220646f6573206e6f742068617665207468652041726269747261746f7220726f6c655365636f6e646172793a2063616c6c6572206973206e6f7420746865207072696d617279206163636f756e74726566756e643a2062757965722063616e206f6e6c792067657420726566756e64207768696c6520726566756e64696e675361666545524332303a204552433230206f7065726174696f6e20646964206e6f742073756363656564a165627a7a723058204d33e9ffa0707b793ff2aad9ed6ae3004c70d5064feb5ea5dcadeda7929e17d20029526f6c65733a206163636f756e7420697320746865207a65726f2061646472657373",
  "source": "pragma solidity ^0.5.0;\n\n//import \"openzeppelin-solidity/contracts/math/SafeMath.sol\";\nimport \"openzeppelin-solidity/contracts/ownership/Secondary.sol\";\nimport \"openzeppelin-solidity/contracts/token/ERC20/IERC20.sol\";\nimport \"openzeppelin-solidity/contracts/token/ERC20/SafeERC20.sol\";\nimport \"./ArbitratorRole.sol\";\n /**\n  * Decentralized Paypal contract\n    for test purpose, these two stable coins token addresses are used:\n    0xc09E62C5c30644dce152B3fDcAFe7b8C86bc6719  USDT\n    0x96c54F2A5C3dE2fF5F1a1627EaEf2A1Ec88c9FD5  DAI\n  */\n\n\n\ncontract Paypal is Secondary,ArbitratorRole{\n\n    using SafeERC20 for IERC20;\n    //using SafeMath for uint256;\n    /*\n    Active means seller can withdraw upon expired;\n    Refunding means buyer can refund;\n    Pending means both buyer and seller cannot claim the fund;\n    */\n    enum State { Active, Refunding, Pending, Releasing}\n\n\n    mapping(address => uint256) private _deposits;\n\n    event Deposited(uint orderid, address payer, address recipient, uint256 amount);\n    event Withdraw(uint orderid, address  recipient, uint256 amount);\n    event Refund(uint orderid,address  payer,uint256 amount);\n    event ReleaseFund(uint orderid);\n    event PendingFund(uint orderid);\n    event ActiveFund(uint orderid);\n    event EnableRefund(uint orderid);\n    event ArbitratorWithdraw(address sender, uint256 payment);\n\n    struct Order {\n\n        address _payee;\n        address _payer;\n        uint256 _expiryTime;\n        uint256 _amount;\n        IERC20 _token;\n        State _state;\n        \n    } \n\n    mapping (uint256 => Order) private _orderDetail;\n\n    function depositsOf(uint orderid) public view returns (uint256) {\n        return _orderDetail[orderid]._amount;\n    }\n\n    function payee(uint orderid) public view returns (address) {\n        return _orderDetail[orderid]._payee;\n    }\n\n\n    function payer(uint orderid) public view returns (address) {\n        return _orderDetail[orderid]._payer;\n    }\n\n    function expire(uint orderid) public view returns (uint256) {\n        return _orderDetail[orderid]._expiryTime;\n    }\n\n    function state(uint orderid) public view returns (State) {\n        return _orderDetail[orderid]._state;\n    }\n\n    function setExpiryDate(uint orderid,uint256 expiry) public {\n        _orderDetail[orderid]._expiryTime = expiry;\n    }\n\n\n    /**\n     * for Arbitrator to deposit ETH\n     */\n    function () external payable {\n\n        _deposits[msg.sender]=_deposits[msg.sender]+msg.value;\n    }\n\n    function arbitratorWithdraw() external payable {\n\n        uint256 payment = _deposits[msg.sender];\n\n        _deposits[msg.sender] = 0;\n\n        msg.sender.transfer(payment);\n\n        emit ArbitratorWithdraw(msg.sender, payment);\n    }\n    /**\n     * @dev Stores the sent amount as credit to be withdrawn.\n     * @param recipient The destination address of the funds.\n     */\n    function deposit(address token,address recipient,uint256 amount,uint orderid) public returns (bool)  {\n        IERC20 stableCoin = IERC20(token);\n        require (stableCoin.allowance(msg.sender,address(this)) >=amount,\"allowance must larger than deposit!\");\n        _orderDetail[orderid]._amount = amount;\n        _orderDetail[orderid]._payee = recipient;\n        _orderDetail[orderid]._payer = msg.sender;\n        _orderDetail[orderid]._token = stableCoin;\n        _orderDetail[orderid]._state = State.Active;\n        //IERC20(token).safeTransferFrom(msg.sender,address(this),amount);\n        //uint256 sendBalance = stableCoin.balanceOf(msg.sender);\n        stableCoin.safeTransferFrom(msg.sender,address(this),amount);\n        emit Deposited(orderid,msg.sender,recipient,amount);\n        return true;\n    }\n\n    function releaseFund(uint orderid) public  {\n        require (_orderDetail[orderid]._payer ==msg.sender);\n        _orderDetail[orderid]._state = State.Releasing;\n        emit ReleaseFund(orderid);\n    }\n\n    function pendingFund(uint orderid) public {\n        require (_orderDetail[orderid]._payer ==msg.sender);\n        _orderDetail[orderid]._state = State.Pending;\n        emit PendingFund(orderid);\n    }\n\n    function activeFund(uint orderid) public onlyArbitrator {\n        _orderDetail[orderid]._state = State.Active;\n        emit ActiveFund(orderid);\n    }\n\n     function enableRefund(uint orderid) public onlyArbitrator {\n        _orderDetail[orderid]._state = State.Refunding;\n        emit EnableRefund(orderid);\n    }\n\n\n    function refund(uint orderid) public {\n        require(_orderDetail[orderid]._state == State.Refunding, \"refund: buyer can only get refund while refunding\");\n        address recipient = _orderDetail[orderid]._payer;\n        uint256 payment = _orderDetail[orderid]._amount;\n        IERC20 token = _orderDetail[orderid]._token;\n        delete _orderDetail[orderid];\n        token.safeTransfer(recipient,payment);\n        emit Refund(orderid, recipient,payment);\n    }\n    /**\n     * @dev Withdraw accumulated balance for a recipient.\n     */\n    function withdraw(uint orderid) public  {\n        require(block.timestamp >= _orderDetail[orderid]._expiryTime,\"withdraw: seller can only withdraw after time out\");\n        require(_orderDetail[orderid]._state == State.Releasing||_orderDetail[orderid]._state ==State.Active,\"withdraw: need active or releasing\");\n        uint256 payment = _orderDetail[orderid]._amount;\n        IERC20 token = _orderDetail[orderid]._token;\n        address recipient = _orderDetail[orderid]._payee;\n        delete _orderDetail[orderid];\n        token.safeTransfer(recipient,payment);\n        emit Withdraw(orderid,recipient,payment);\n    }\n\n\n\n}\n",
  "sourcePath": "C:/Users/hchen/Documents/GitHub/Thiaoouba-noaccount.github.io/DecentralizedPaypal/contracts/Paypal.sol",
  "compiler": {
    "name": "solc",
    "version": "0.5.8+commit.23d335f2.Emscripten.clang"
  },
  "schemaVersion": "3.0.11",
  "updatedAt": "2020-10-15T10:46:00.097Z",
  "devdoc": {
    "methods": {
      "deposit(address,address,uint256,uint256)": {
        "details": "Stores the sent amount as credit to be withdrawn.",
        "params": {
          "recipient": "The destination address of the funds."
        }
      },
      "primary()": {
        "return": "the address of the primary."
      },
      "transferPrimary(address)": {
        "details": "Transfers contract to a new primary.",
        "params": {
          "recipient": "The address of new primary."
        }
      },
      "withdraw(uint256)": {
        "details": "Withdraw accumulated balance for a recipient."
      }
    }
  },
  "userdoc": {
    "methods": {},
    "notice": "Decentralized Paypal contract for test purpose, these two stable coins token addresses are used: 0xc09E62C5c30644dce152B3fDcAFe7b8C86bc6719  USDT 0x96c54F2A5C3dE2fF5F1a1627EaEf2A1Ec88c9FD5  DAI"
  }
}